{
  "_format": "hh-sol-artifact-1",
  "contractName": "MyToken",
  "sourceName": "contracts/MyToken.sol",
  "abi": [
    {
      "inputs": [],
      "stateMutability": "nonpayable",
      "type": "constructor"
    },
    {
      "inputs": [],
      "name": "InvalidShortString",
      "type": "error"
    },
    {
      "inputs": [
        {
          "internalType": "string",
          "name": "str",
          "type": "string"
        }
      ],
      "name": "StringTooLong",
      "type": "error"
    },
    {
      "anonymous": false,
      "inputs": [
        {
          "indexed": true,
          "internalType": "address",
          "name": "owner",
          "type": "address"
        },
        {
          "indexed": true,
          "internalType": "address",
          "name": "spender",
          "type": "address"
        },
        {
          "indexed": false,
          "internalType": "uint256",
          "name": "value",
          "type": "uint256"
        }
      ],
      "name": "Approval",
      "type": "event"
    },
    {
      "anonymous": false,
      "inputs": [
        {
          "indexed": true,
          "internalType": "address",
          "name": "delegator",
          "type": "address"
        },
        {
          "indexed": true,
          "internalType": "address",
          "name": "fromDelegate",
          "type": "address"
        },
        {
          "indexed": true,
          "internalType": "address",
          "name": "toDelegate",
          "type": "address"
        }
      ],
      "name": "DelegateChanged",
      "type": "event"
    },
    {
      "anonymous": false,
      "inputs": [
        {
          "indexed": true,
          "internalType": "address",
          "name": "delegate",
          "type": "address"
        },
        {
          "indexed": false,
          "internalType": "uint256",
          "name": "previousBalance",
          "type": "uint256"
        },
        {
          "indexed": false,
          "internalType": "uint256",
          "name": "newBalance",
          "type": "uint256"
        }
      ],
      "name": "DelegateVotesChanged",
      "type": "event"
    },
    {
      "anonymous": false,
      "inputs": [],
      "name": "EIP712DomainChanged",
      "type": "event"
    },
    {
      "anonymous": false,
      "inputs": [
        {
          "indexed": true,
          "internalType": "bytes32",
          "name": "role",
          "type": "bytes32"
        },
        {
          "indexed": true,
          "internalType": "bytes32",
          "name": "previousAdminRole",
          "type": "bytes32"
        },
        {
          "indexed": true,
          "internalType": "bytes32",
          "name": "newAdminRole",
          "type": "bytes32"
        }
      ],
      "name": "RoleAdminChanged",
      "type": "event"
    },
    {
      "anonymous": false,
      "inputs": [
        {
          "indexed": true,
          "internalType": "bytes32",
          "name": "role",
          "type": "bytes32"
        },
        {
          "indexed": true,
          "internalType": "address",
          "name": "account",
          "type": "address"
        },
        {
          "indexed": true,
          "internalType": "address",
          "name": "sender",
          "type": "address"
        }
      ],
      "name": "RoleGranted",
      "type": "event"
    },
    {
      "anonymous": false,
      "inputs": [
        {
          "indexed": true,
          "internalType": "bytes32",
          "name": "role",
          "type": "bytes32"
        },
        {
          "indexed": true,
          "internalType": "address",
          "name": "account",
          "type": "address"
        },
        {
          "indexed": true,
          "internalType": "address",
          "name": "sender",
          "type": "address"
        }
      ],
      "name": "RoleRevoked",
      "type": "event"
    },
    {
      "anonymous": false,
      "inputs": [
        {
          "indexed": true,
          "internalType": "address",
          "name": "from",
          "type": "address"
        },
        {
          "indexed": true,
          "internalType": "address",
          "name": "to",
          "type": "address"
        },
        {
          "indexed": false,
          "internalType": "uint256",
          "name": "value",
          "type": "uint256"
        }
      ],
      "name": "Transfer",
      "type": "event"
    },
    {
      "inputs": [],
      "name": "CLOCK_MODE",
      "outputs": [
        {
          "internalType": "string",
          "name": "",
          "type": "string"
        }
      ],
      "stateMutability": "view",
      "type": "function"
    },
    {
      "inputs": [],
      "name": "DEFAULT_ADMIN_ROLE",
      "outputs": [
        {
          "internalType": "bytes32",
          "name": "",
          "type": "bytes32"
        }
      ],
      "stateMutability": "view",
      "type": "function"
    },
    {
      "inputs": [],
      "name": "DOMAIN_SEPARATOR",
      "outputs": [
        {
          "internalType": "bytes32",
          "name": "",
          "type": "bytes32"
        }
      ],
      "stateMutability": "view",
      "type": "function"
    },
    {
      "inputs": [],
      "name": "MINTER_ROLE",
      "outputs": [
        {
          "internalType": "bytes32",
          "name": "",
          "type": "bytes32"
        }
      ],
      "stateMutability": "view",
      "type": "function"
    },
    {
      "inputs": [
        {
          "internalType": "address",
          "name": "owner",
          "type": "address"
        },
        {
          "internalType": "address",
          "name": "spender",
          "type": "address"
        }
      ],
      "name": "allowance",
      "outputs": [
        {
          "internalType": "uint256",
          "name": "",
          "type": "uint256"
        }
      ],
      "stateMutability": "view",
      "type": "function"
    },
    {
      "inputs": [
        {
          "internalType": "address",
          "name": "spender",
          "type": "address"
        },
        {
          "internalType": "uint256",
          "name": "amount",
          "type": "uint256"
        }
      ],
      "name": "approve",
      "outputs": [
        {
          "internalType": "bool",
          "name": "",
          "type": "bool"
        }
      ],
      "stateMutability": "nonpayable",
      "type": "function"
    },
    {
      "inputs": [
        {
          "internalType": "address",
          "name": "account",
          "type": "address"
        }
      ],
      "name": "balanceOf",
      "outputs": [
        {
          "internalType": "uint256",
          "name": "",
          "type": "uint256"
        }
      ],
      "stateMutability": "view",
      "type": "function"
    },
    {
      "inputs": [
        {
          "internalType": "address",
          "name": "account",
          "type": "address"
        },
        {
          "internalType": "uint32",
          "name": "pos",
          "type": "uint32"
        }
      ],
      "name": "checkpoints",
      "outputs": [
        {
          "components": [
            {
              "internalType": "uint32",
              "name": "fromBlock",
              "type": "uint32"
            },
            {
              "internalType": "uint224",
              "name": "votes",
              "type": "uint224"
            }
          ],
          "internalType": "struct ERC20Votes.Checkpoint",
          "name": "",
          "type": "tuple"
        }
      ],
      "stateMutability": "view",
      "type": "function"
    },
    {
      "inputs": [],
      "name": "clock",
      "outputs": [
        {
          "internalType": "uint48",
          "name": "",
          "type": "uint48"
        }
      ],
      "stateMutability": "view",
      "type": "function"
    },
    {
      "inputs": [],
      "name": "decimals",
      "outputs": [
        {
          "internalType": "uint8",
          "name": "",
          "type": "uint8"
        }
      ],
      "stateMutability": "view",
      "type": "function"
    },
    {
      "inputs": [
        {
          "internalType": "address",
          "name": "spender",
          "type": "address"
        },
        {
          "internalType": "uint256",
          "name": "subtractedValue",
          "type": "uint256"
        }
      ],
      "name": "decreaseAllowance",
      "outputs": [
        {
          "internalType": "bool",
          "name": "",
          "type": "bool"
        }
      ],
      "stateMutability": "nonpayable",
      "type": "function"
    },
    {
      "inputs": [
        {
          "internalType": "address",
          "name": "delegatee",
          "type": "address"
        }
      ],
      "name": "delegate",
      "outputs": [],
      "stateMutability": "nonpayable",
      "type": "function"
    },
    {
      "inputs": [
        {
          "internalType": "address",
          "name": "delegatee",
          "type": "address"
        },
        {
          "internalType": "uint256",
          "name": "nonce",
          "type": "uint256"
        },
        {
          "internalType": "uint256",
          "name": "expiry",
          "type": "uint256"
        },
        {
          "internalType": "uint8",
          "name": "v",
          "type": "uint8"
        },
        {
          "internalType": "bytes32",
          "name": "r",
          "type": "bytes32"
        },
        {
          "internalType": "bytes32",
          "name": "s",
          "type": "bytes32"
        }
      ],
      "name": "delegateBySig",
      "outputs": [],
      "stateMutability": "nonpayable",
      "type": "function"
    },
    {
      "inputs": [
        {
          "internalType": "address",
          "name": "account",
          "type": "address"
        }
      ],
      "name": "delegates",
      "outputs": [
        {
          "internalType": "address",
          "name": "",
          "type": "address"
        }
      ],
      "stateMutability": "view",
      "type": "function"
    },
    {
      "inputs": [],
      "name": "eip712Domain",
      "outputs": [
        {
          "internalType": "bytes1",
          "name": "fields",
          "type": "bytes1"
        },
        {
          "internalType": "string",
          "name": "name",
          "type": "string"
        },
        {
          "internalType": "string",
          "name": "version",
          "type": "string"
        },
        {
          "internalType": "uint256",
          "name": "chainId",
          "type": "uint256"
        },
        {
          "internalType": "address",
          "name": "verifyingContract",
          "type": "address"
        },
        {
          "internalType": "bytes32",
          "name": "salt",
          "type": "bytes32"
        },
        {
          "internalType": "uint256[]",
          "name": "extensions",
          "type": "uint256[]"
        }
      ],
      "stateMutability": "view",
      "type": "function"
    },
    {
      "inputs": [
        {
          "internalType": "uint256",
          "name": "timepoint",
          "type": "uint256"
        }
      ],
      "name": "getPastTotalSupply",
      "outputs": [
        {
          "internalType": "uint256",
          "name": "",
          "type": "uint256"
        }
      ],
      "stateMutability": "view",
      "type": "function"
    },
    {
      "inputs": [
        {
          "internalType": "address",
          "name": "account",
          "type": "address"
        },
        {
          "internalType": "uint256",
          "name": "timepoint",
          "type": "uint256"
        }
      ],
      "name": "getPastVotes",
      "outputs": [
        {
          "internalType": "uint256",
          "name": "",
          "type": "uint256"
        }
      ],
      "stateMutability": "view",
      "type": "function"
    },
    {
      "inputs": [
        {
          "internalType": "bytes32",
          "name": "role",
          "type": "bytes32"
        }
      ],
      "name": "getRoleAdmin",
      "outputs": [
        {
          "internalType": "bytes32",
          "name": "",
          "type": "bytes32"
        }
      ],
      "stateMutability": "view",
      "type": "function"
    },
    {
      "inputs": [
        {
          "internalType": "address",
          "name": "account",
          "type": "address"
        }
      ],
      "name": "getVotes",
      "outputs": [
        {
          "internalType": "uint256",
          "name": "",
          "type": "uint256"
        }
      ],
      "stateMutability": "view",
      "type": "function"
    },
    {
      "inputs": [
        {
          "internalType": "bytes32",
          "name": "role",
          "type": "bytes32"
        },
        {
          "internalType": "address",
          "name": "account",
          "type": "address"
        }
      ],
      "name": "grantRole",
      "outputs": [],
      "stateMutability": "nonpayable",
      "type": "function"
    },
    {
      "inputs": [
        {
          "internalType": "bytes32",
          "name": "role",
          "type": "bytes32"
        },
        {
          "internalType": "address",
          "name": "account",
          "type": "address"
        }
      ],
      "name": "hasRole",
      "outputs": [
        {
          "internalType": "bool",
          "name": "",
          "type": "bool"
        }
      ],
      "stateMutability": "view",
      "type": "function"
    },
    {
      "inputs": [
        {
          "internalType": "address",
          "name": "spender",
          "type": "address"
        },
        {
          "internalType": "uint256",
          "name": "addedValue",
          "type": "uint256"
        }
      ],
      "name": "increaseAllowance",
      "outputs": [
        {
          "internalType": "bool",
          "name": "",
          "type": "bool"
        }
      ],
      "stateMutability": "nonpayable",
      "type": "function"
    },
    {
      "inputs": [
        {
          "internalType": "address",
          "name": "to",
          "type": "address"
        },
        {
          "internalType": "uint256",
          "name": "amount",
          "type": "uint256"
        }
      ],
      "name": "mint",
      "outputs": [],
      "stateMutability": "nonpayable",
      "type": "function"
    },
    {
      "inputs": [],
      "name": "name",
      "outputs": [
        {
          "internalType": "string",
          "name": "",
          "type": "string"
        }
      ],
      "stateMutability": "view",
      "type": "function"
    },
    {
      "inputs": [
        {
          "internalType": "address",
          "name": "owner",
          "type": "address"
        }
      ],
      "name": "nonces",
      "outputs": [
        {
          "internalType": "uint256",
          "name": "",
          "type": "uint256"
        }
      ],
      "stateMutability": "view",
      "type": "function"
    },
    {
      "inputs": [
        {
          "internalType": "address",
          "name": "account",
          "type": "address"
        }
      ],
      "name": "numCheckpoints",
      "outputs": [
        {
          "internalType": "uint32",
          "name": "",
          "type": "uint32"
        }
      ],
      "stateMutability": "view",
      "type": "function"
    },
    {
      "inputs": [],
      "name": "owner",
      "outputs": [
        {
          "internalType": "address",
          "name": "",
          "type": "address"
        }
      ],
      "stateMutability": "view",
      "type": "function"
    },
    {
      "inputs": [
        {
          "internalType": "address",
          "name": "owner",
          "type": "address"
        },
        {
          "internalType": "address",
          "name": "spender",
          "type": "address"
        },
        {
          "internalType": "uint256",
          "name": "value",
          "type": "uint256"
        },
        {
          "internalType": "uint256",
          "name": "deadline",
          "type": "uint256"
        },
        {
          "internalType": "uint8",
          "name": "v",
          "type": "uint8"
        },
        {
          "internalType": "bytes32",
          "name": "r",
          "type": "bytes32"
        },
        {
          "internalType": "bytes32",
          "name": "s",
          "type": "bytes32"
        }
      ],
      "name": "permit",
      "outputs": [],
      "stateMutability": "nonpayable",
      "type": "function"
    },
    {
      "inputs": [
        {
          "internalType": "bytes32",
          "name": "role",
          "type": "bytes32"
        },
        {
          "internalType": "address",
          "name": "account",
          "type": "address"
        }
      ],
      "name": "renounceRole",
      "outputs": [],
      "stateMutability": "nonpayable",
      "type": "function"
    },
    {
      "inputs": [
        {
          "internalType": "bytes32",
          "name": "role",
          "type": "bytes32"
        },
        {
          "internalType": "address",
          "name": "account",
          "type": "address"
        }
      ],
      "name": "revokeRole",
      "outputs": [],
      "stateMutability": "nonpayable",
      "type": "function"
    },
    {
      "inputs": [
        {
          "internalType": "bytes4",
          "name": "interfaceId",
          "type": "bytes4"
        }
      ],
      "name": "supportsInterface",
      "outputs": [
        {
          "internalType": "bool",
          "name": "",
          "type": "bool"
        }
      ],
      "stateMutability": "view",
      "type": "function"
    },
    {
      "inputs": [],
      "name": "symbol",
      "outputs": [
        {
          "internalType": "string",
          "name": "",
          "type": "string"
        }
      ],
      "stateMutability": "view",
      "type": "function"
    },
    {
      "inputs": [],
      "name": "totalSupply",
      "outputs": [
        {
          "internalType": "uint256",
          "name": "",
          "type": "uint256"
        }
      ],
      "stateMutability": "view",
      "type": "function"
    },
    {
      "inputs": [
        {
          "internalType": "address",
          "name": "to",
          "type": "address"
        },
        {
          "internalType": "uint256",
          "name": "amount",
          "type": "uint256"
        }
      ],
      "name": "transfer",
      "outputs": [
        {
          "internalType": "bool",
          "name": "",
          "type": "bool"
        }
      ],
      "stateMutability": "nonpayable",
      "type": "function"
    },
    {
      "inputs": [
        {
          "internalType": "address",
          "name": "from",
          "type": "address"
        },
        {
          "internalType": "address",
          "name": "to",
          "type": "address"
        },
        {
          "internalType": "uint256",
          "name": "amount",
          "type": "uint256"
        }
      ],
      "name": "transferFrom",
      "outputs": [
        {
          "internalType": "bool",
          "name": "",
          "type": "bool"
        }
      ],
      "stateMutability": "nonpayable",
      "type": "function"
    }
  ],
  "bytecode": "0x6101606040523480156200001257600080fd5b506040518060400160405280600781526020017f4d79546f6b656e00000000000000000000000000000000000000000000000000815250806040518060400160405280600181526020017f31000000000000000000000000000000000000000000000000000000000000008152506040518060400160405280600781526020017f4d79546f6b656e000000000000000000000000000000000000000000000000008152506040518060400160405280600381526020017f4d544b00000000000000000000000000000000000000000000000000000000008152508160039081620000fd91906200075c565b5080600490816200010f91906200075c565b505050620001286006836200025160201b90919060201c565b6101208181525050620001466007826200025160201b90919060201c565b6101408181525050818051906020012060e08181525050808051906020012061010081815250504660a0818152505062000185620002a960201b60201c565b608081815250503073ffffffffffffffffffffffffffffffffffffffff1660c08173ffffffffffffffffffffffffffffffffffffffff1681525050505050620001d86000801b336200030660201b60201c565b6200020a7f9f2df0fed2c77648de5860a4cc508cd0818c85b8b8a1ab4ceeef8d981c8956a6336200030660201b60201c565b33600d60006101000a81548173ffffffffffffffffffffffffffffffffffffffff021916908373ffffffffffffffffffffffffffffffffffffffff16021790555062000a66565b600060208351101562000277576200026f83620003f860201b60201c565b9050620002a3565b8262000289836200046560201b60201c565b60000190816200029a91906200075c565b5060ff60001b90505b92915050565b60007f8b73c3c69bb8fe3d512ecc4cf759cc79239f7b179b0ffacaa9a75d522b39400f60e051610100514630604051602001620002eb959493929190620008b4565b60405160208183030381529060405280519060200120905090565b6200031882826200046f60201b60201c565b620003f45760016005600084815260200190815260200160002060000160008373ffffffffffffffffffffffffffffffffffffffff1673ffffffffffffffffffffffffffffffffffffffff16815260200190815260200160002060006101000a81548160ff02191690831515021790555062000399620004da60201b60201c565b73ffffffffffffffffffffffffffffffffffffffff168173ffffffffffffffffffffffffffffffffffffffff16837f2f8788117e7eff1d82e926ec794901d17c78024a50270940304540a733656f0d60405160405180910390a45b5050565b600080829050601f815111156200044857826040517f305a27a90000000000000000000000000000000000000000000000000000000081526004016200043f9190620009a0565b60405180910390fd5b8051816200045690620009f6565b60001c1760001b915050919050565b6000819050919050565b60006005600084815260200190815260200160002060000160008373ffffffffffffffffffffffffffffffffffffffff1673ffffffffffffffffffffffffffffffffffffffff16815260200190815260200160002060009054906101000a900460ff16905092915050565b600033905090565b600081519050919050565b7f4e487b7100000000000000000000000000000000000000000000000000000000600052604160045260246000fd5b7f4e487b7100000000000000000000000000000000000000000000000000000000600052602260045260246000fd5b600060028204905060018216806200056457607f821691505b6020821081036200057a57620005796200051c565b5b50919050565b60008190508160005260206000209050919050565b60006020601f8301049050919050565b600082821b905092915050565b600060088302620005e47fffffffffffffffffffffffffffffffffffffffffffffffffffffffffffffffff82620005a5565b620005f08683620005a5565b95508019841693508086168417925050509392505050565b6000819050919050565b6000819050919050565b60006200063d62000637620006318462000608565b62000612565b62000608565b9050919050565b6000819050919050565b62000659836200061c565b62000671620006688262000644565b848454620005b2565b825550505050565b600090565b6200068862000679565b620006958184846200064e565b505050565b5b81811015620006bd57620006b16000826200067e565b6001810190506200069b565b5050565b601f8211156200070c57620006d68162000580565b620006e18462000595565b81016020851015620006f1578190505b62000709620007008562000595565b8301826200069a565b50505b505050565b600082821c905092915050565b6000620007316000198460080262000711565b1980831691505092915050565b60006200074c83836200071e565b9150826002028217905092915050565b6200076782620004e2565b67ffffffffffffffff811115620007835762000782620004ed565b5b6200078f82546200054b565b6200079c828285620006c1565b600060209050601f831160018114620007d45760008415620007bf578287015190505b620007cb85826200073e565b8655506200083b565b601f198416620007e48662000580565b60005b828110156200080e57848901518255600182019150602085019450602081019050620007e7565b868310156200082e57848901516200082a601f8916826200071e565b8355505b6001600288020188555050505b505050505050565b6000819050919050565b620008588162000843565b82525050565b620008698162000608565b82525050565b600073ffffffffffffffffffffffffffffffffffffffff82169050919050565b60006200089c826200086f565b9050919050565b620008ae816200088f565b82525050565b600060a082019050620008cb60008301886200084d565b620008da60208301876200084d565b620008e960408301866200084d565b620008f860608301856200085e565b620009076080830184620008a3565b9695505050505050565b600082825260208201905092915050565b60005b838110156200094257808201518184015260208101905062000925565b60008484015250505050565b6000601f19601f8301169050919050565b60006200096c82620004e2565b62000978818562000911565b93506200098a81856020860162000922565b62000995816200094e565b840191505092915050565b60006020820190508181036000830152620009bc81846200095f565b905092915050565b600081519050919050565b6000819050602082019050919050565b6000620009ed825162000843565b80915050919050565b600062000a0382620009c4565b8262000a0f84620009cf565b905062000a1c81620009df565b9250602082101562000a5f5762000a5a7fffffffffffffffffffffffffffffffffffffffffffffffffffffffffffffffff83602003600802620005a5565b831692505b5050919050565b60805160a05160c05160e051610100516101205161014051614ba662000ac16000396000610cef01526000610cbb015260006122310152600061221001526000611b4301526000611b9901526000611bc20152614ba66000f3fe608060405234801561001057600080fd5b50600436106102115760003560e01c806370a0823111610125578063a217fddf116100ad578063d505accf1161007c578063d505accf146106a4578063d5391393146106c0578063d547741f146106de578063dd62ed3e146106fa578063f1127ed81461072a57610211565b8063a217fddf1461060a578063a457c2d714610628578063a9059cbb14610658578063c3cda5201461068857610211565b80638e539e8c116100f45780638e539e8c1461053e57806391d148541461056e57806391ddadf41461059e57806395d89b41146105bc5780639ab24eb0146105da57610211565b806370a082311461049c5780637ecebe00146104cc57806384b0196e146104fc5780638da5cb5b1461052057610211565b80633644e515116101a857806340c10f191161017757806340c10f19146103e65780634bf5d7e914610402578063587cde1e146104205780635c19a95c146104505780636fcfff451461046c57610211565b80633644e5151461034c57806336568abe1461036a57806339509351146103865780633a46b1a8146103b657610211565b806323b872dd116101e457806323b872dd146102b2578063248a9ca3146102e25780632f2ff15d14610312578063313ce5671461032e57610211565b806301ffc9a71461021657806306fdde0314610246578063095ea7b31461026457806318160ddd14610294575b600080fd5b610230600480360381019061022b91906132b8565b61075a565b60405161023d9190613300565b60405180910390f35b61024e6107d4565b60405161025b91906133ab565b60405180910390f35b61027e60048036038101906102799190613461565b610866565b60405161028b9190613300565b60405180910390f35b61029c610889565b6040516102a991906134b0565b60405180910390f35b6102cc60048036038101906102c791906134cb565b610893565b6040516102d99190613300565b60405180910390f35b6102fc60048036038101906102f79190613554565b6108c2565b6040516103099190613590565b60405180910390f35b61032c600480360381019061032791906135ab565b6108e2565b005b610336610903565b6040516103439190613607565b60405180910390f35b61035461090c565b6040516103619190613590565b60405180910390f35b610384600480360381019061037f91906135ab565b61091b565b005b6103a0600480360381019061039b9190613461565b61099e565b6040516103ad9190613300565b60405180910390f35b6103d060048036038101906103cb9190613461565b6109d5565b6040516103dd91906134b0565b60405180910390f35b61040060048036038101906103fb9190613461565b610a78565b005b61040a610ab1565b60405161041791906133ab565b60405180910390f35b61043a60048036038101906104359190613622565b610b3f565b604051610447919061365e565b60405180910390f35b61046a60048036038101906104659190613622565b610ba8565b005b61048660048036038101906104819190613622565b610bbc565b6040516104939190613698565b60405180910390f35b6104b660048036038101906104b19190613622565b610c10565b6040516104c391906134b0565b60405180910390f35b6104e660048036038101906104e19190613622565b610c58565b6040516104f391906134b0565b60405180910390f35b610504610ca8565b60405161051797969594939291906137ac565b60405180910390f35b610528610daa565b604051610535919061365e565b60405180910390f35b61055860048036038101906105539190613830565b610dd0565b60405161056591906134b0565b60405180910390f35b610588600480360381019061058391906135ab565b610e35565b6040516105959190613300565b60405180910390f35b6105a6610ea0565b6040516105b3919061387e565b60405180910390f35b6105c4610eb0565b6040516105d191906133ab565b60405180910390f35b6105f460048036038101906105ef9190613622565b610f42565b60405161060191906134b0565b60405180910390f35b61061261104a565b60405161061f9190613590565b60405180910390f35b610642600480360381019061063d9190613461565b611051565b60405161064f9190613300565b60405180910390f35b610672600480360381019061066d9190613461565b6110c8565b60405161067f9190613300565b60405180910390f35b6106a2600480360381019061069d91906138c5565b6110eb565b005b6106be60048036038101906106b99190613952565b6111ef565b005b6106c8611331565b6040516106d59190613590565b60405180910390f35b6106f860048036038101906106f391906135ab565b611355565b005b610714600480360381019061070f91906139f4565b611376565b60405161072191906134b0565b60405180910390f35b610744600480360381019061073f9190613a60565b6113fd565b6040516107519190613b15565b60405180910390f35b60007f7965db0b000000000000000000000000000000000000000000000000000000007bffffffffffffffffffffffffffffffffffffffffffffffffffffffff1916827bffffffffffffffffffffffffffffffffffffffffffffffffffffffff191614806107cd57506107cc8261150d565b5b9050919050565b6060600380546107e390613b5f565b80601f016020809104026020016040519081016040528092919081815260200182805461080f90613b5f565b801561085c5780601f106108315761010080835404028352916020019161085c565b820191906000526020600020905b81548152906001019060200180831161083f57829003601f168201915b5050505050905090565b600080610871611577565b905061087e81858561157f565b600191505092915050565b6000600254905090565b60008061089e611577565b90506108ab858285611748565b6108b68585856117d4565b60019150509392505050565b600060056000838152602001908152602001600020600101549050919050565b6108eb826108c2565b6108f481611a4a565b6108fe8383611a5e565b505050565b60006012905090565b6000610916611b3f565b905090565b610923611577565b73ffffffffffffffffffffffffffffffffffffffff168173ffffffffffffffffffffffffffffffffffffffff1614610990576040517f08c379a000000000000000000000000000000000000000000000000000000000815260040161098790613c02565b60405180910390fd5b61099a8282611bf6565b5050565b6000806109a9611577565b90506109ca8185856109bb8589611376565b6109c59190613c51565b61157f565b600191505092915050565b60006109df610ea0565b65ffffffffffff168210610a28576040517f08c379a0000000000000000000000000000000000000000000000000000000008152600401610a1f90613cd1565b60405180910390fd5b610a70600b60008573ffffffffffffffffffffffffffffffffffffffff1673ffffffffffffffffffffffffffffffffffffffff16815260200190815260200160002083611cd8565b905092915050565b7f9f2df0fed2c77648de5860a4cc508cd0818c85b8b8a1ab4ceeef8d981c8956a6610aa281611a4a565b610aac8383611e20565b505050565b606043610abc610ea0565b65ffffffffffff1614610b04576040517f08c379a0000000000000000000000000000000000000000000000000000000008152600401610afb90613d3d565b60405180910390fd5b6040518060400160405280601d81526020017f6d6f64653d626c6f636b6e756d6265722666726f6d3d64656661756c74000000815250905090565b6000600a60008373ffffffffffffffffffffffffffffffffffffffff1673ffffffffffffffffffffffffffffffffffffffff16815260200190815260200160002060009054906101000a900473ffffffffffffffffffffffffffffffffffffffff169050919050565b610bb9610bb3611577565b82611e2e565b50565b6000610c09600b60008473ffffffffffffffffffffffffffffffffffffffff1673ffffffffffffffffffffffffffffffffffffffff16815260200190815260200160002080549050611f48565b9050919050565b60008060008373ffffffffffffffffffffffffffffffffffffffff1673ffffffffffffffffffffffffffffffffffffffff168152602001908152602001600020549050919050565b6000610ca1600860008473ffffffffffffffffffffffffffffffffffffffff1673ffffffffffffffffffffffffffffffffffffffff168152602001908152602001600020611f9b565b9050919050565b600060608060008060006060610ce860067f0000000000000000000000000000000000000000000000000000000000000000611fa990919063ffffffff16565b610d1c60077f0000000000000000000000000000000000000000000000000000000000000000611fa990919063ffffffff16565b46306000801b600067ffffffffffffffff811115610d3d57610d3c613d5d565b5b604051908082528060200260200182016040528015610d6b5781602001602082028036833780820191505090505b507f0f00000000000000000000000000000000000000000000000000000000000000959493929190965096509650965096509650965090919293949596565b600d60009054906101000a900473ffffffffffffffffffffffffffffffffffffffff1681565b6000610dda610ea0565b65ffffffffffff168210610e23576040517f08c379a0000000000000000000000000000000000000000000000000000000008152600401610e1a90613cd1565b60405180910390fd5b610e2e600c83611cd8565b9050919050565b60006005600084815260200190815260200160002060000160008373ffffffffffffffffffffffffffffffffffffffff1673ffffffffffffffffffffffffffffffffffffffff16815260200190815260200160002060009054906101000a900460ff16905092915050565b6000610eab43612059565b905090565b606060048054610ebf90613b5f565b80601f0160208091040260200160405190810160405280929190818152602001828054610eeb90613b5f565b8015610f385780601f10610f0d57610100808354040283529160200191610f38565b820191906000526020600020905b815481529060010190602001808311610f1b57829003601f168201915b5050505050905090565b600080600b60008473ffffffffffffffffffffffffffffffffffffffff1673ffffffffffffffffffffffffffffffffffffffff1681526020019081526020016000208054905090506000811461102157600b60008473ffffffffffffffffffffffffffffffffffffffff1673ffffffffffffffffffffffffffffffffffffffff1681526020019081526020016000206001820381548110610fe657610fe5613d8c565b5b9060005260206000200160000160049054906101000a90047bffffffffffffffffffffffffffffffffffffffffffffffffffffffff16611024565b60005b7bffffffffffffffffffffffffffffffffffffffffffffffffffffffff16915050919050565b6000801b81565b60008061105c611577565b9050600061106a8286611376565b9050838110156110af576040517f08c379a00000000000000000000000000000000000000000000000000000000081526004016110a690613e2d565b60405180910390fd5b6110bc828686840361157f565b60019250505092915050565b6000806110d3611577565b90506110e08185856117d4565b600191505092915050565b8342111561112e576040517f08c379a000000000000000000000000000000000000000000000000000000000815260040161112590613e99565b60405180910390fd5b60006111906111887fe48329057bfd03d55e49b547132e39cffd9c1820ad7b9d4c5307691425d15adf89898960405160200161116d9493929190613eb9565b604051602081830303815290604052805190602001206120ae565b8585856120c8565b905061119b816120f3565b86146111dc576040517f08c379a00000000000000000000000000000000000000000000000000000000081526004016111d390613f4a565b60405180910390fd5b6111e68188611e2e565b50505050505050565b83421115611232576040517f08c379a000000000000000000000000000000000000000000000000000000000815260040161122990613fb6565b60405180910390fd5b60007f6e71edae12b1b97f4d1f60370fef10105fa2faae0126114a169c64845d6126c98888886112618c6120f3565b8960405160200161127796959493929190613fd6565b604051602081830303815290604052805190602001209050600061129a826120ae565b905060006112aa828787876120c8565b90508973ffffffffffffffffffffffffffffffffffffffff168173ffffffffffffffffffffffffffffffffffffffff161461131a576040517f08c379a000000000000000000000000000000000000000000000000000000000815260040161131190614083565b60405180910390fd5b6113258a8a8a61157f565b50505050505050505050565b7f9f2df0fed2c77648de5860a4cc508cd0818c85b8b8a1ab4ceeef8d981c8956a681565b61135e826108c2565b61136781611a4a565b6113718383611bf6565b505050565b6000600160008473ffffffffffffffffffffffffffffffffffffffff1673ffffffffffffffffffffffffffffffffffffffff16815260200190815260200160002060008373ffffffffffffffffffffffffffffffffffffffff1673ffffffffffffffffffffffffffffffffffffffff16815260200190815260200160002054905092915050565b61140561321d565b600b60008473ffffffffffffffffffffffffffffffffffffffff1673ffffffffffffffffffffffffffffffffffffffff1681526020019081526020016000208263ffffffff168154811061145c5761145b613d8c565b5b906000526020600020016040518060400160405290816000820160009054906101000a900463ffffffff1663ffffffff1663ffffffff1681526020016000820160049054906101000a90047bffffffffffffffffffffffffffffffffffffffffffffffffffffffff167bffffffffffffffffffffffffffffffffffffffffffffffffffffffff167bffffffffffffffffffffffffffffffffffffffffffffffffffffffff1681525050905092915050565b60007f01ffc9a7000000000000000000000000000000000000000000000000000000007bffffffffffffffffffffffffffffffffffffffffffffffffffffffff1916827bffffffffffffffffffffffffffffffffffffffffffffffffffffffff1916149050919050565b600033905090565b600073ffffffffffffffffffffffffffffffffffffffff168373ffffffffffffffffffffffffffffffffffffffff16036115ee576040517f08c379a00000000000000000000000000000000000000000000000000000000081526004016115e590614115565b60405180910390fd5b600073ffffffffffffffffffffffffffffffffffffffff168273ffffffffffffffffffffffffffffffffffffffff160361165d576040517f08c379a0000000000000000000000000000000000000000000000000000000008152600401611654906141a7565b60405180910390fd5b80600160008573ffffffffffffffffffffffffffffffffffffffff1673ffffffffffffffffffffffffffffffffffffffff16815260200190815260200160002060008473ffffffffffffffffffffffffffffffffffffffff1673ffffffffffffffffffffffffffffffffffffffff168152602001908152602001600020819055508173ffffffffffffffffffffffffffffffffffffffff168373ffffffffffffffffffffffffffffffffffffffff167f8c5be1e5ebec7d5bd14f71427d1e84f3dd0314c0f7b2291e5b200ac8c7c3b9258360405161173b91906134b0565b60405180910390a3505050565b60006117548484611376565b90507fffffffffffffffffffffffffffffffffffffffffffffffffffffffffffffffff81146117ce57818110156117c0576040517f08c379a00000000000000000000000000000000000000000000000000000000081526004016117b790614213565b60405180910390fd5b6117cd848484840361157f565b5b50505050565b600073ffffffffffffffffffffffffffffffffffffffff168373ffffffffffffffffffffffffffffffffffffffff1603611843576040517f08c379a000000000000000000000000000000000000000000000000000000000815260040161183a906142a5565b60405180910390fd5b600073ffffffffffffffffffffffffffffffffffffffff168273ffffffffffffffffffffffffffffffffffffffff16036118b2576040517f08c379a00000000000000000000000000000000000000000000000000000000081526004016118a990614337565b60405180910390fd5b6118bd838383612151565b60008060008573ffffffffffffffffffffffffffffffffffffffff1673ffffffffffffffffffffffffffffffffffffffff16815260200190815260200160002054905081811015611943576040517f08c379a000000000000000000000000000000000000000000000000000000000815260040161193a906143c9565b60405180910390fd5b8181036000808673ffffffffffffffffffffffffffffffffffffffff1673ffffffffffffffffffffffffffffffffffffffff16815260200190815260200160002081905550816000808573ffffffffffffffffffffffffffffffffffffffff1673ffffffffffffffffffffffffffffffffffffffff168152602001908152602001600020600082825401925050819055508273ffffffffffffffffffffffffffffffffffffffff168473ffffffffffffffffffffffffffffffffffffffff167fddf252ad1be2c89b69c2b068fc378daa952ba7f163c4a11628f55a4df523b3ef84604051611a3191906134b0565b60405180910390a3611a44848484612156565b50505050565b611a5b81611a56611577565b612166565b50565b611a688282610e35565b611b3b5760016005600084815260200190815260200160002060000160008373ffffffffffffffffffffffffffffffffffffffff1673ffffffffffffffffffffffffffffffffffffffff16815260200190815260200160002060006101000a81548160ff021916908315150217905550611ae0611577565b73ffffffffffffffffffffffffffffffffffffffff168173ffffffffffffffffffffffffffffffffffffffff16837f2f8788117e7eff1d82e926ec794901d17c78024a50270940304540a733656f0d60405160405180910390a45b5050565b60007f000000000000000000000000000000000000000000000000000000000000000073ffffffffffffffffffffffffffffffffffffffff163073ffffffffffffffffffffffffffffffffffffffff16148015611bbb57507f000000000000000000000000000000000000000000000000000000000000000046145b15611be8577f00000000000000000000000000000000000000000000000000000000000000009050611bf3565b611bf06121eb565b90505b90565b611c008282610e35565b15611cd45760006005600084815260200190815260200160002060000160008373ffffffffffffffffffffffffffffffffffffffff1673ffffffffffffffffffffffffffffffffffffffff16815260200190815260200160002060006101000a81548160ff021916908315150217905550611c79611577565b73ffffffffffffffffffffffffffffffffffffffff168173ffffffffffffffffffffffffffffffffffffffff16837ff6391f5c32d9c69d2a47ea670b442974b53935d1edc7fd64eb21e047a839171b60405160405180910390a45b5050565b600080838054905090506000808290506005831115611d4e576000611cfc84612281565b84611d0791906143e9565b905085611d14888361237a565b60000160009054906101000a900463ffffffff1663ffffffff161115611d3c57809150611d4c565b600181611d499190613c51565b92505b505b5b80821015611dae576000611d63838361238f565b905085611d70888361237a565b60000160009054906101000a900463ffffffff1663ffffffff161115611d9857809150611da8565b600181611da59190613c51565b92505b50611d4f565b60008114611df457611dc3866001830361237a565b60000160049054906101000a90047bffffffffffffffffffffffffffffffffffffffffffffffffffffffff16611df7565b60005b7bffffffffffffffffffffffffffffffffffffffffffffffffffffffff16935050505092915050565b611e2a82826123b5565b5050565b6000611e3983610b3f565b90506000611e4684610c10565b905082600a60008673ffffffffffffffffffffffffffffffffffffffff1673ffffffffffffffffffffffffffffffffffffffff16815260200190815260200160002060006101000a81548173ffffffffffffffffffffffffffffffffffffffff021916908373ffffffffffffffffffffffffffffffffffffffff1602179055508273ffffffffffffffffffffffffffffffffffffffff168273ffffffffffffffffffffffffffffffffffffffff168573ffffffffffffffffffffffffffffffffffffffff167f3134e8a2e6d97e929a7e54011ea5485d7d196dd5f0ba4d4ef95803e8e3fc257f60405160405180910390a4611f42828483612442565b50505050565b600063ffffffff8016821115611f93576040517f08c379a0000000000000000000000000000000000000000000000000000000008152600401611f8a9061448f565b60405180910390fd5b819050919050565b600081600001549050919050565b606060ff60001b8314611fc657611fbf8361263b565b9050612053565b818054611fd290613b5f565b80601f0160208091040260200160405190810160405280929190818152602001828054611ffe90613b5f565b801561204b5780601f106120205761010080835404028352916020019161204b565b820191906000526020600020905b81548152906001019060200180831161202e57829003601f168201915b505050505090505b92915050565b600065ffffffffffff80168211156120a6576040517f08c379a000000000000000000000000000000000000000000000000000000000815260040161209d90614521565b60405180910390fd5b819050919050565b60006120c16120bb611b3f565b836126af565b9050919050565b60008060006120d9878787876126f0565b915091506120e6816127d2565b8192505050949350505050565b600080600860008473ffffffffffffffffffffffffffffffffffffffff1673ffffffffffffffffffffffffffffffffffffffff168152602001908152602001600020905061214081611f9b565b915061214b81612938565b50919050565b505050565b61216183838361294e565b505050565b6121708282610e35565b6121e75761217d81612979565b61218b8360001c60206129a6565b60405160200161219c929190614615565b6040516020818303038152906040526040517f08c379a00000000000000000000000000000000000000000000000000000000081526004016121de91906133ab565b60405180910390fd5b5050565b60007f8b73c3c69bb8fe3d512ecc4cf759cc79239f7b179b0ffacaa9a75d522b39400f7f00000000000000000000000000000000000000000000000000000000000000007f0000000000000000000000000000000000000000000000000000000000000000463060405160200161226695949392919061464f565b60405160208183030381529060405280519060200120905090565b60008082036122935760009050612375565b600060016122a084612be2565b901c6001901b905060018184816122ba576122b96146a2565b5b048201901c905060018184816122d3576122d26146a2565b5b048201901c905060018184816122ec576122eb6146a2565b5b048201901c90506001818481612305576123046146a2565b5b048201901c9050600181848161231e5761231d6146a2565b5b048201901c90506001818481612337576123366146a2565b5b048201901c905060018184816123505761234f6146a2565b5b048201901c90506123718182858161236b5761236a6146a2565b5b04612cc3565b9150505b919050565b60008260005281602060002001905092915050565b600060028284186123a091906146d1565b8284166123ad9190613c51565b905092915050565b6123bf8282612cdc565b6123c7612e32565b7bffffffffffffffffffffffffffffffffffffffffffffffffffffffff166123ed610889565b111561242e576040517f08c379a000000000000000000000000000000000000000000000000000000000815260040161242590614774565b60405180910390fd5b61243c600c612e5683612e6c565b50505050565b8173ffffffffffffffffffffffffffffffffffffffff168373ffffffffffffffffffffffffffffffffffffffff161415801561247e5750600081115b1561263657600073ffffffffffffffffffffffffffffffffffffffff168373ffffffffffffffffffffffffffffffffffffffff161461255c57600080612505600b60008773ffffffffffffffffffffffffffffffffffffffff1673ffffffffffffffffffffffffffffffffffffffff16815260200190815260200160002061314785612e6c565b915091508473ffffffffffffffffffffffffffffffffffffffff167fdec2bacdd2f05b59de34da9b523dff8be42e5e38e818c82fdb0bae774387a7248383604051612551929190614794565b60405180910390a250505b600073ffffffffffffffffffffffffffffffffffffffff168273ffffffffffffffffffffffffffffffffffffffff1614612635576000806125de600b60008673ffffffffffffffffffffffffffffffffffffffff1673ffffffffffffffffffffffffffffffffffffffff168152602001908152602001600020612e5685612e6c565b915091508373ffffffffffffffffffffffffffffffffffffffff167fdec2bacdd2f05b59de34da9b523dff8be42e5e38e818c82fdb0bae774387a724838360405161262a929190614794565b60405180910390a250505b5b505050565b606060006126488361315d565b90506000602067ffffffffffffffff81111561266757612666613d5d565b5b6040519080825280601f01601f1916602001820160405280156126995781602001600182028036833780820191505090505b5090508181528360208201528092505050919050565b60006040517f190100000000000000000000000000000000000000000000000000000000000081528360028201528260228201526042812091505092915050565b6000807f7fffffffffffffffffffffffffffffff5d576e7357a4501ddfe92f46681b20a08360001c111561272b5760006003915091506127c9565b60006001878787876040516000815260200160405260405161275094939291906147bd565b6020604051602081039080840390855afa158015612772573d6000803e3d6000fd5b505050602060405103519050600073ffffffffffffffffffffffffffffffffffffffff168173ffffffffffffffffffffffffffffffffffffffff16036127c0576000600192509250506127c9565b80600092509250505b94509492505050565b600060048111156127e6576127e5614802565b5b8160048111156127f9576127f8614802565b5b0315612935576001600481111561281357612812614802565b5b81600481111561282657612825614802565b5b03612866576040517f08c379a000000000000000000000000000000000000000000000000000000000815260040161285d9061487d565b60405180910390fd5b6002600481111561287a57612879614802565b5b81600481111561288d5761288c614802565b5b036128cd576040517f08c379a00000000000000000000000000000000000000000000000000000000081526004016128c4906148e9565b60405180910390fd5b600360048111156128e1576128e0614802565b5b8160048111156128f4576128f3614802565b5b03612934576040517f08c379a000000000000000000000000000000000000000000000000000000000815260040161292b9061497b565b60405180910390fd5b5b50565b6001816000016000828254019250508190555050565b6129598383836131ad565b61297461296584610b3f565b61296e84610b3f565b83612442565b505050565b606061299f8273ffffffffffffffffffffffffffffffffffffffff16601460ff166129a6565b9050919050565b6060600060028360026129b9919061499b565b6129c39190613c51565b67ffffffffffffffff8111156129dc576129db613d5d565b5b6040519080825280601f01601f191660200182016040528015612a0e5781602001600182028036833780820191505090505b5090507f300000000000000000000000000000000000000000000000000000000000000081600081518110612a4657612a45613d8c565b5b60200101907effffffffffffffffffffffffffffffffffffffffffffffffffffffffffffff1916908160001a9053507f780000000000000000000000000000000000000000000000000000000000000081600181518110612aaa57612aa9613d8c565b5b60200101907effffffffffffffffffffffffffffffffffffffffffffffffffffffffffffff1916908160001a90535060006001846002612aea919061499b565b612af49190613c51565b90505b6001811115612b94577f3031323334353637383961626364656600000000000000000000000000000000600f861660108110612b3657612b35613d8c565b5b1a60f81b828281518110612b4d57612b4c613d8c565b5b60200101907effffffffffffffffffffffffffffffffffffffffffffffffffffffffffffff1916908160001a905350600485901c945080612b8d906149dd565b9050612af7565b5060008414612bd8576040517f08c379a0000000000000000000000000000000000000000000000000000000008152600401612bcf90614a52565b60405180910390fd5b8091505092915050565b600080600090506000608084901c1115612c0457608083901c92506080810190505b6000604084901c1115612c1f57604083901c92506040810190505b6000602084901c1115612c3a57602083901c92506020810190505b6000601084901c1115612c5557601083901c92506010810190505b6000600884901c1115612c7057600883901c92506008810190505b6000600484901c1115612c8b57600483901c92506004810190505b6000600284901c1115612ca657600283901c92506002810190505b6000600184901c1115612cba576001810190505b80915050919050565b6000818310612cd25781612cd4565b825b905092915050565b600073ffffffffffffffffffffffffffffffffffffffff168273ffffffffffffffffffffffffffffffffffffffff1603612d4b576040517f08c379a0000000000000000000000000000000000000000000000000000000008152600401612d4290614abe565b60405180910390fd5b612d5760008383612151565b8060026000828254612d699190613c51565b92505081905550806000808473ffffffffffffffffffffffffffffffffffffffff1673ffffffffffffffffffffffffffffffffffffffff168152602001908152602001600020600082825401925050819055508173ffffffffffffffffffffffffffffffffffffffff16600073ffffffffffffffffffffffffffffffffffffffff167fddf252ad1be2c89b69c2b068fc378daa952ba7f163c4a11628f55a4df523b3ef83604051612e1a91906134b0565b60405180910390a3612e2e60008383612156565b5050565b60007bffffffffffffffffffffffffffffffffffffffffffffffffffffffff905090565b60008183612e649190613c51565b905092915050565b6000806000858054905090506000808214612f3257612e8e876001840361237a565b6040518060400160405290816000820160009054906101000a900463ffffffff1663ffffffff1663ffffffff1681526020016000820160049054906101000a90047bffffffffffffffffffffffffffffffffffffffffffffffffffffffff167bffffffffffffffffffffffffffffffffffffffffffffffffffffffff167bffffffffffffffffffffffffffffffffffffffffffffffffffffffff1681525050612f6e565b6040518060400160405280600063ffffffff16815260200160007bffffffffffffffffffffffffffffffffffffffffffffffffffffffff168152505b905080602001517bffffffffffffffffffffffffffffffffffffffffffffffffffffffff169350612fa384868863ffffffff16565b9250600082118015612fcd5750612fb8610ea0565b65ffffffffffff16816000015163ffffffff16145b1561303e57612fdb836131b2565b612fe8886001850361237a565b60000160046101000a8154817bffffffffffffffffffffffffffffffffffffffffffffffffffffffff02191690837bffffffffffffffffffffffffffffffffffffffffffffffffffffffff16021790555061313d565b866040518060400160405280613062613055610ea0565b65ffffffffffff16611f48565b63ffffffff168152602001613076866131b2565b7bffffffffffffffffffffffffffffffffffffffffffffffffffffffff168152509080600181540180825580915050600190039060005260206000200160009091909190915060008201518160000160006101000a81548163ffffffff021916908363ffffffff16021790555060208201518160000160046101000a8154817bffffffffffffffffffffffffffffffffffffffffffffffffffffffff02191690837bffffffffffffffffffffffffffffffffffffffffffffffffffffffff16021790555050505b5050935093915050565b6000818361315591906143e9565b905092915050565b60008060ff8360001c169050601f8111156131a4576040517fb3512b0c00000000000000000000000000000000000000000000000000000000815260040160405180910390fd5b80915050919050565b505050565b60007bffffffffffffffffffffffffffffffffffffffffffffffffffffffff8016821115613215576040517f08c379a000000000000000000000000000000000000000000000000000000000815260040161320c90614b50565b60405180910390fd5b819050919050565b6040518060400160405280600063ffffffff16815260200160007bffffffffffffffffffffffffffffffffffffffffffffffffffffffff1681525090565b600080fd5b60007fffffffff0000000000000000000000000000000000000000000000000000000082169050919050565b61329581613260565b81146132a057600080fd5b50565b6000813590506132b28161328c565b92915050565b6000602082840312156132ce576132cd61325b565b5b60006132dc848285016132a3565b91505092915050565b60008115159050919050565b6132fa816132e5565b82525050565b600060208201905061331560008301846132f1565b92915050565b600081519050919050565b600082825260208201905092915050565b60005b8381101561335557808201518184015260208101905061333a565b60008484015250505050565b6000601f19601f8301169050919050565b600061337d8261331b565b6133878185613326565b9350613397818560208601613337565b6133a081613361565b840191505092915050565b600060208201905081810360008301526133c58184613372565b905092915050565b600073ffffffffffffffffffffffffffffffffffffffff82169050919050565b60006133f8826133cd565b9050919050565b613408816133ed565b811461341357600080fd5b50565b600081359050613425816133ff565b92915050565b6000819050919050565b61343e8161342b565b811461344957600080fd5b50565b60008135905061345b81613435565b92915050565b600080604083850312156134785761347761325b565b5b600061348685828601613416565b92505060206134978582860161344c565b9150509250929050565b6134aa8161342b565b82525050565b60006020820190506134c560008301846134a1565b92915050565b6000806000606084860312156134e4576134e361325b565b5b60006134f286828701613416565b935050602061350386828701613416565b92505060406135148682870161344c565b9150509250925092565b6000819050919050565b6135318161351e565b811461353c57600080fd5b50565b60008135905061354e81613528565b92915050565b60006020828403121561356a5761356961325b565b5b60006135788482850161353f565b91505092915050565b61358a8161351e565b82525050565b60006020820190506135a56000830184613581565b92915050565b600080604083850312156135c2576135c161325b565b5b60006135d08582860161353f565b92505060206135e185828601613416565b9150509250929050565b600060ff82169050919050565b613601816135eb565b82525050565b600060208201905061361c60008301846135f8565b92915050565b6000602082840312156136385761363761325b565b5b600061364684828501613416565b91505092915050565b613658816133ed565b82525050565b6000602082019050613673600083018461364f565b92915050565b600063ffffffff82169050919050565b61369281613679565b82525050565b60006020820190506136ad6000830184613689565b92915050565b60007fff0000000000000000000000000000000000000000000000000000000000000082169050919050565b6136e8816136b3565b82525050565b600081519050919050565b600082825260208201905092915050565b6000819050602082019050919050565b6137238161342b565b82525050565b6000613735838361371a565b60208301905092915050565b6000602082019050919050565b6000613759826136ee565b61376381856136f9565b935061376e8361370a565b8060005b8381101561379f5781516137868882613729565b975061379183613741565b925050600181019050613772565b5085935050505092915050565b600060e0820190506137c1600083018a6136df565b81810360208301526137d38189613372565b905081810360408301526137e78188613372565b90506137f660608301876134a1565b613803608083018661364f565b61381060a0830185613581565b81810360c0830152613822818461374e565b905098975050505050505050565b6000602082840312156138465761384561325b565b5b60006138548482850161344c565b91505092915050565b600065ffffffffffff82169050919050565b6138788161385d565b82525050565b6000602082019050613893600083018461386f565b92915050565b6138a2816135eb565b81146138ad57600080fd5b50565b6000813590506138bf81613899565b92915050565b60008060008060008060c087890312156138e2576138e161325b565b5b60006138f089828a01613416565b965050602061390189828a0161344c565b955050604061391289828a0161344c565b945050606061392389828a016138b0565b935050608061393489828a0161353f565b92505060a061394589828a0161353f565b9150509295509295509295565b600080600080600080600060e0888a0312156139715761397061325b565b5b600061397f8a828b01613416565b97505060206139908a828b01613416565b96505060406139a18a828b0161344c565b95505060606139b28a828b0161344c565b94505060806139c38a828b016138b0565b93505060a06139d48a828b0161353f565b92505060c06139e58a828b0161353f565b91505092959891949750929550565b60008060408385031215613a0b57613a0a61325b565b5b6000613a1985828601613416565b9250506020613a2a85828601613416565b9150509250929050565b613a3d81613679565b8114613a4857600080fd5b50565b600081359050613a5a81613a34565b92915050565b60008060408385031215613a7757613a7661325b565b5b6000613a8585828601613416565b9250506020613a9685828601613a4b565b9150509250929050565b613aa981613679565b82525050565b60007bffffffffffffffffffffffffffffffffffffffffffffffffffffffff82169050919050565b613ae081613aaf565b82525050565b604082016000820151613afc6000850182613aa0565b506020820151613b0f6020850182613ad7565b50505050565b6000604082019050613b2a6000830184613ae6565b92915050565b7f4e487b7100000000000000000000000000000000000000000000000000000000600052602260045260246000fd5b60006002820490506001821680613b7757607f821691505b602082108103613b8a57613b89613b30565b5b50919050565b7f416363657373436f6e74726f6c3a2063616e206f6e6c792072656e6f756e636560008201527f20726f6c657320666f722073656c660000000000000000000000000000000000602082015250565b6000613bec602f83613326565b9150613bf782613b90565b604082019050919050565b60006020820190508181036000830152613c1b81613bdf565b9050919050565b7f4e487b7100000000000000000000000000000000000000000000000000000000600052601160045260246000fd5b6000613c5c8261342b565b9150613c678361342b565b9250828201905080821115613c7f57613c7e613c22565b5b92915050565b7f4552433230566f7465733a20667574757265206c6f6f6b757000000000000000600082015250565b6000613cbb601983613326565b9150613cc682613c85565b602082019050919050565b60006020820190508181036000830152613cea81613cae565b9050919050565b7f4552433230566f7465733a2062726f6b656e20636c6f636b206d6f6465000000600082015250565b6000613d27601d83613326565b9150613d3282613cf1565b602082019050919050565b60006020820190508181036000830152613d5681613d1a565b9050919050565b7f4e487b7100000000000000000000000000000000000000000000000000000000600052604160045260246000fd5b7f4e487b7100000000000000000000000000000000000000000000000000000000600052603260045260246000fd5b7f45524332303a2064656372656173656420616c6c6f77616e63652062656c6f7760008201527f207a65726f000000000000000000000000000000000000000000000000000000602082015250565b6000613e17602583613326565b9150613e2282613dbb565b604082019050919050565b60006020820190508181036000830152613e4681613e0a565b9050919050565b7f4552433230566f7465733a207369676e61747572652065787069726564000000600082015250565b6000613e83601d83613326565b9150613e8e82613e4d565b602082019050919050565b60006020820190508181036000830152613eb281613e76565b9050919050565b6000608082019050613ece6000830187613581565b613edb602083018661364f565b613ee860408301856134a1565b613ef560608301846134a1565b95945050505050565b7f4552433230566f7465733a20696e76616c6964206e6f6e636500000000000000600082015250565b6000613f34601983613326565b9150613f3f82613efe565b602082019050919050565b60006020820190508181036000830152613f6381613f27565b9050919050565b7f45524332305065726d69743a206578706972656420646561646c696e65000000600082015250565b6000613fa0601d83613326565b9150613fab82613f6a565b602082019050919050565b60006020820190508181036000830152613fcf81613f93565b9050919050565b600060c082019050613feb6000830189613581565b613ff8602083018861364f565b614005604083018761364f565b61401260608301866134a1565b61401f60808301856134a1565b61402c60a08301846134a1565b979650505050505050565b7f45524332305065726d69743a20696e76616c6964207369676e61747572650000600082015250565b600061406d601e83613326565b915061407882614037565b602082019050919050565b6000602082019050818103600083015261409c81614060565b9050919050565b7f45524332303a20617070726f76652066726f6d20746865207a65726f2061646460008201527f7265737300000000000000000000000000000000000000000000000000000000602082015250565b60006140ff602483613326565b915061410a826140a3565b604082019050919050565b6000602082019050818103600083015261412e816140f2565b9050919050565b7f45524332303a20617070726f766520746f20746865207a65726f20616464726560008201527f7373000000000000000000000000000000000000000000000000000000000000602082015250565b6000614191602283613326565b915061419c82614135565b604082019050919050565b600060208201905081810360008301526141c081614184565b9050919050565b7f45524332303a20696e73756666696369656e7420616c6c6f77616e6365000000600082015250565b60006141fd601d83613326565b9150614208826141c7565b602082019050919050565b6000602082019050818103600083015261422c816141f0565b9050919050565b7f45524332303a207472616e736665722066726f6d20746865207a65726f20616460008201527f6472657373000000000000000000000000000000000000000000000000000000602082015250565b600061428f602583613326565b915061429a82614233565b604082019050919050565b600060208201905081810360008301526142be81614282565b9050919050565b7f45524332303a207472616e7366657220746f20746865207a65726f206164647260008201527f6573730000000000000000000000000000000000000000000000000000000000602082015250565b6000614321602383613326565b915061432c826142c5565b604082019050919050565b6000602082019050818103600083015261435081614314565b9050919050565b7f45524332303a207472616e7366657220616d6f756e742065786365656473206260008201527f616c616e63650000000000000000000000000000000000000000000000000000602082015250565b60006143b3602683613326565b91506143be82614357565b604082019050919050565b600060208201905081810360008301526143e2816143a6565b9050919050565b60006143f48261342b565b91506143ff8361342b565b925082820390508181111561441757614416613c22565b5b92915050565b7f53616665436173743a2076616c756520646f65736e27742066697420696e203360008201527f3220626974730000000000000000000000000000000000000000000000000000602082015250565b6000614479602683613326565b91506144848261441d565b604082019050919050565b600060208201905081810360008301526144a88161446c565b9050919050565b7f53616665436173743a2076616c756520646f65736e27742066697420696e203460008201527f3820626974730000000000000000000000000000000000000000000000000000602082015250565b600061450b602683613326565b9150614516826144af565b604082019050919050565b6000602082019050818103600083015261453a816144fe565b9050919050565b600081905092915050565b7f416363657373436f6e74726f6c3a206163636f756e7420000000000000000000600082015250565b6000614582601783614541565b915061458d8261454c565b601782019050919050565b60006145a38261331b565b6145ad8185614541565b93506145bd818560208601613337565b80840191505092915050565b7f206973206d697373696e6720726f6c6520000000000000000000000000000000600082015250565b60006145ff601183614541565b915061460a826145c9565b601182019050919050565b600061462082614575565b915061462c8285614598565b9150614637826145f2565b91506146438284614598565b91508190509392505050565b600060a0820190506146646000830188613581565b6146716020830187613581565b61467e6040830186613581565b61468b60608301856134a1565b614698608083018461364f565b9695505050505050565b7f4e487b7100000000000000000000000000000000000000000000000000000000600052601260045260246000fd5b60006146dc8261342b565b91506146e78361342b565b9250826146f7576146f66146a2565b5b828204905092915050565b7f4552433230566f7465733a20746f74616c20737570706c79207269736b73206f60008201527f766572666c6f77696e6720766f74657300000000000000000000000000000000602082015250565b600061475e603083613326565b915061476982614702565b604082019050919050565b6000602082019050818103600083015261478d81614751565b9050919050565b60006040820190506147a960008301856134a1565b6147b660208301846134a1565b9392505050565b60006080820190506147d26000830187613581565b6147df60208301866135f8565b6147ec6040830185613581565b6147f96060830184613581565b95945050505050565b7f4e487b7100000000000000000000000000000000000000000000000000000000600052602160045260246000fd5b7f45434453413a20696e76616c6964207369676e61747572650000000000000000600082015250565b6000614867601883613326565b915061487282614831565b602082019050919050565b600060208201905081810360008301526148968161485a565b9050919050565b7f45434453413a20696e76616c6964207369676e6174757265206c656e67746800600082015250565b60006148d3601f83613326565b91506148de8261489d565b602082019050919050565b60006020820190508181036000830152614902816148c6565b9050919050565b7f45434453413a20696e76616c6964207369676e6174757265202773272076616c60008201527f7565000000000000000000000000000000000000000000000000000000000000602082015250565b6000614965602283613326565b915061497082614909565b604082019050919050565b6000602082019050818103600083015261499481614958565b9050919050565b60006149a68261342b565b91506149b18361342b565b92508282026149bf8161342b565b915082820484148315176149d6576149d5613c22565b5b5092915050565b60006149e88261342b565b9150600082036149fb576149fa613c22565b5b600182039050919050565b7f537472696e67733a20686578206c656e67746820696e73756666696369656e74600082015250565b6000614a3c602083613326565b9150614a4782614a06565b602082019050919050565b60006020820190508181036000830152614a6b81614a2f565b9050919050565b7f45524332303a206d696e7420746f20746865207a65726f206164647265737300600082015250565b6000614aa8601f83613326565b9150614ab382614a72565b602082019050919050565b60006020820190508181036000830152614ad781614a9b565b9050919050565b7f53616665436173743a2076616c756520646f65736e27742066697420696e203260008201527f3234206269747300000000000000000000000000000000000000000000000000602082015250565b6000614b3a602783613326565b9150614b4582614ade565b604082019050919050565b60006020820190508181036000830152614b6981614b2d565b905091905056fea26469706673582212208d585ff6778550a3900a86752357fc8f4b550e473653e2c325054992f258886464736f6c63430008130033",
  "linkReferences": {},
  "deployedLinkReferences": {}
}